:020000040800F2
:10000000F00800209D010008230300081B030008DE
:100010001F0300082D020008090D00080000000061
:10002000000000000000000000000000A10800081F
:1000300031020008000000009D030008B909000813
:10004000B7010008B7010008B7010008B7010008B0
:10005000B7010008B7010008B7010008B7010008A0
:10006000B7010008B7010008B7010008B701000890
:10007000B7010008B7010008B7010008B701000880
:10008000B7010008B7010008B7010008B701000870
:10009000B7010008B7010008B7010008B701000860
:1000A000B7010008B7010008B7010008B701000850
:1000B000B7010008B7010008B7010008B701000840
:1000C000B7010008B7010008B7010008B701000830
:1000D000B7010008250A0008B7010008B7010008A9
:1000E000B7010008B7010008B7010008B701000810
:1000F000B7010008B7010008B7010008B701000800
:10010000B7010008B7010008B7010008B7010008EF
:10011000B7010008B7010008B7010008B7010008DF
:10012000B7010008B7010008B7010008B7010008CF
:10013000B7010008B7010008B7010008B7010008BF
:10014000B7010008B7010008B7010008B7010008AF
:10015000B7010008B7010008B7010008B70100089F
:10016000B7010008B7010008B7010008B70100088F
:10017000B7010008B7010008B7010008B70100087F
:10018000B7010008B7010008DFF80CD000F03CF818
:100190000048004735110008F00800200648804755
:1001A00006480047FEE7FEE7FEE7FEE7FEE7FEE75C
:1001B000FEE7FEE7FEE7FEE7BD090008890100084B
:1001C00040EA01039B0703D009E008C9121F08C0D9
:1001D000042AFAD203E011F8013B00F8013B521E59
:1001E000F9D27047D2B201E000F8012B491EFBD2D0
:1001F00070470022F6E710B513460A460446194632
:10020000FFF7F0FF204610BD064C074D06E0E06802
:1002100040F0010394E8070098471034AC42F6D34D
:10022000FFF7B6FF3C1300085C13000800BFFEE7B1
:100230007047F0B50A4600210023002400BF3DE0CE
:10024000012505FA01F3156805EA03049C4234D13F
:1002500005684F000326BE40B543056015794E0082
:10026000B5400668354305601579012D02D0157932
:10027000022D16D185684F000326BE40B543856028
:1002800055794E00B540866835438560456801263E
:100290008E40B5434560456896798E40B6B2354389
:1002A0004560C5684F000326BE40B543C560D5799B
:1002B0004E00B540C6683543C560491C1029BFD300
:1002C000F0BDF0B5002300244D07ED0E02FA05F352
:1002D000CE1000F1200555F826504E07F70E0F26D8
:1002E000BE40B543CF1000F1200646F82750CE108F
:1002F00000F1200555F8265045EA0304CE1000F120
:10030000200545F82640F0BD4FF6FF710160002141
:10031000017141718171C171704700BFFEE700BF7B
:10032000FEE7704770B5002100230F22C4781CB38C
:10033000174C246804F4E064C4F5E064C4F30721B6
:10034000C1F10404E3B20A4144789C40E1B28478EC
:10035000144021430C07210E0E4C0578615504789A
:1003600004F01F050124AC4005786D11AD0005F1C6
:10037000E025C5F8004109E0047804F01F050124D8
:10038000AC40054D0678761145F8264070BD00005A
:100390000CED00E000E400E080E100E070470000C8
:1003A00029B1064A12680243044B1A6004E0034A6A
:1003B00012688243014B1A607047000030380240D7
:1003C00029B1064A12680243044B1A6004E0034A4A
:1003D00012688243014B1A607047000020380240C7
:1003E00029B1064A12680243044B1A6004E0034A2A
:1003F00012688243014B1A60704700004438024083
:1004000029B1064A12680243044B1A6004E0034A09
:1004100012688243014B1A60704700002438024082
:10042000F0B5002100220024022500260223324FCD
:100430003F6807F00C0121B1042905D0082937D104
:1004400005E02E4F076036E02D4F076033E02A4F5E
:100450003F1F3F68C7F38056274F3F1F3F6807F095
:100460003F036EB1264FB7FBF3F7DFF88CC0ACF15A
:10047000040CDCF800C0CCF3881C07FB0CF40CE087
:100480001E4FB7FBF3F7DFF870C0ACF1040CDCF8DB
:1004900000C0CCF3881C07FB0CF4174F3F1F3F68CC
:1004A000C7F301477F1C7D00B4FBF5F7076002E04E
:1004B000124F076000BF00BF0F4F3F6807F0F00109
:1004C0000909104F7A5C0768D74047600A4F3F68B8
:1004D00007F4E051890A0B4F7A5C4768D740876080
:1004E000054F3F6807F46041490B064F7A5C476847
:1004F000D740C760F0BD0000083802400024F40077
:1005000000127A00140000202DE9F8430446DFF8B9
:100510008C8000BF98F8000008B900F0F7FB00BF1E
:100520000027FF208DF80000102C31D21C48005D00
:100530008DF80100194D1835EFF311808046202009
:1005400080F3118800BF00BF287D00F0030002285F
:1005500007D11448047002226946284600F02AFD9B
:100560000FE0284600F00AFC0646022E07D30D488D
:10057000047002226946284600F057FD01E04FF062
:10058000FF3708F0FF0080F3118800BF00BF01E0D3
:100590004FF0FF373846BDE8F883000038000020F0
:1005A00024000020340000202DE9F04104460D46CF
:1005B00016460E4F00BF387808B900F0A7FB00BF01
:1005C000EFF311800746202080F3118800BF00BFA1
:1005D00032462946204600F00BF88046F8B280F3F8
:1005E000118800BF00BF4046BDE8F0813800002000
:1005F0002DE9F047074688461646C24607EB4701F5
:100600001B4800EBC109D9F8140020B1012811D012
:10061000022826D11EE0484600F0B0FB0546B54250
:1006200001D2002405E0344632465146484600F0E7
:10063000FCFC18E0484600F0A1FB0546B54201D29B
:10064000284600E03046044622465146484600F01F
:10065000ECFC08E032465146484600F0ABFC04464C
:1006600001E0002400BF00BF2046BDE8F087000085
:10067000500000200FB438B5044606A800906A4622
:100680002046059900F007F805460020009028460E
:1006900038BC5DF814FB2DE9F04F99B082460D4649
:1006A000144603A814904020159000201690CDF811
:1006B00060A0179000BF2E786D1C06B9DDE0252ED6
:1006C00079D100274FF0010900BF2E78232E12D0D8
:1006D0002B2E0CD02D2E02D0302E10D103E047F05F
:1006E00001076D1C0EE047F002076D1C0AE047F0A1
:1006F00004076D1C06E047F008076D1C02E04FF090
:10070000000900BF00BFB9F1000FDED14FF00008B3
:1007100000BF2E78302E01DB392E00DD07E06D1C86
:10072000A6F1300008EB880100EB4108F1E700BFBB
:10073000002013902E782E2E12D16D1C00BF2E7823
:10074000302E01DB392E00DD09E06D1CA6F13000F2
:10075000139901EB810100EB41001390EFE700BF1B
:100760002E7800BF6C2E01D0682E02D16D1C2E7821
:1007700000E000E0F6E700BF702E5DD008DC252E1B
:100780006AD0582E35D0632E09D0642E69D113E07B
:10079000732E3CD0752E1DD0782E62D128E02168B2
:1007A000081D2060D1F8009009F0FF0B594614A8ED
:1007B00000F0DEFB56E058E02168081D2060D1F80B
:1007C0000090CDE900870A22494614A8139B00F047
:1007D000E3FA47E02168081D2060D1F80090CDE9D8
:1007E00000870A22494614A8139B00F04BFB39E00E
:1007F00000BF2168081D2060D1F80090CDE9008776
:100800001022494614A8139B00F03CFB2AE0216803
:10081000081D2060D1F800B000BF9BF800600BF10C
:10082000010B06B906E0314614A800F0A1FB1798A9
:100830000028F2DA00BF15E02168081D2060D1F819
:100840000090002008210B461022CDE900104946F7
:1008500014A800F017FB05E0252114A800F088FB80
:1008600000E000BF00BF6D1C03E0314614A800F09B
:100870007FFB17980028BFF61EAF00BF179800280F
:100880000ADD169820B103A95046169AFFF78CFE90
:10089000DDE9161008441790179819B0BDE8F08FDD
:1008A000704700000CB500200190009034480068AB
:1008B00040F480303249086000BF3148006800F4DD
:1008C000003000900198401C0190009818B90198E0
:1008D000B0F5A04FF1D12A48006800F4003010B103
:1008E0000120009001E0002000900098012846D1EE
:1008F00023484030006840F0805021494031086072
:100900002048006840F440401E4908601C480830F8
:1009100000681B49083108600846006840F4004040
:1009200008600846006840F4A05008601648091F97
:100930000860081F006840F08070091F086000BF51
:100940000F48006800F000700028F9D040F20570F0
:100950000E4908600A480830006820F00300084982
:10096000083108600846006840F00200086000BFD7
:1009700003480830006800F00C000828F8D10CBDCE
:10098000003802400070004008544007003C02401C
:10099000042808D14FF0E021096941F004014FF02B
:1009A000E022116107E04FF0E021096921F0040124
:1009B0004FF0E022116170477047000010B51548F4
:1009C000006840F47000134908601348006840F064
:1009D00001001149086000200F49083108600E48E5
:1009E00000680E4908400C4908600D48091D086060
:1009F000081F006820F48020091F086000200649B5
:100A00000C310860FFF74EFF4FF00060014980395C
:100A1000086010BD88ED00E000380240FFFFF6FEE0
:100A20001030002410B540F22551054800F0A6F81A
:100A3000012804D140F22551014800F00CF810BD06
:100A40000010014001F40072B2F5007F00D100BF38
:100A5000CA430280704710B50022002340F66A1492
:100A6000A14200D100BF0A1201249440A3B2DC438A
:100A7000048010BD21B1828942F40052828104E0D9
:100A800082894DF6FF731A408281704710B5044683
:100A90003248844208D101211020FFF7B1FC002127
:100AA0001020FFF7ADFC57E02D48844209D1012109
:100AB0004804FFF785FC00214FF40030FFF780FC6D
:100AC0004AE02848844209D101218804FFF778FCD4
:100AD00000214FF48020FFF773FC3DE02248844260
:100AE00009D10121C804FFF76BFC00214FF400205D
:100AF000FFF766FC30E01D48844209D1012108055A
:100B0000FFF75EFC00214FF48010FFF759FC23E053
:100B10001748844208D101212020FFF771FC0021F1
:100B20002020FFF76DFC17E01248844209D1012113
:100B30008807FFF745FC00214FF08040FFF740FC9D
:100B40000AE00D48844207D101214005FFF738FC37
:100B500000216005FFF734FC10BD000000100140CB
:100B60000044004000480040004C0040005000405D
:100B70000014014000780040007C004070B502463F
:100B8000002400230025002040F66A16B14200D15F
:100B900000BFC1F3421501F01F03012606FA03F35B
:100BA000012D02D19689334006E0022D02D1168A2A
:100BB000334001E0968A33400C12012606FA04F411
:100BC0001688344013B10CB1012000E0002070BD44
:100BD000F0B50346002400260025002040F66A17E1
:100BE000B94200D100BF1846C1F3421401F01F06FC
:100BF000012707FA06F5012C01D10C3004E0022C84
:100C000001D1103000E014301AB107682F4307609B
:100C100002E00768AF430760F0BD00002DE9FF4721
:100C200005460E460024A14600BFA046B08900B18B
:100C300000BF2C8A24F44054F08804432C82AC89F1
:100C400041F20C608443B0883189084371890843BC
:100C50000443AC81AC8A24F44074B0890443AC8270
:100C60006846FFF7DDFB2048854202D01F488542D9
:100C700002D1DDF80C9001E0DDF80890A88900F4BD
:100C8000004040B109EBC90000EB09103168490090
:100C9000B0FBF1F707E009EBC90000EB0910316880
:100CA0008900B0FBF1F76420B7FBF0F004012009E4
:100CB000642101FB1078A88900F4004040B1322083
:100CC00000EBC800B0FBF1F000F00700044308E0BF
:100CD000322000EB08106421B0FBF1F000F00F00AF
:100CE00004432C81BDE8FF8700100140001401403F
:100CF0004FF41651016000218180C18001810C21D7
:100D0000418100218181704700BFFEE770B5144C1E
:100D1000A8212046FFF76DFA03202061606111A031
:100D2000A0611349E1614FF4806121620021A16259
:100D30006162E1620BA020660E4961661021A16626
:100D400000212167E1666167002505E0C5F10F001C
:100D50000949085C60556D1C102DF7D370BD00006B
:100D6000380000205465726D696E616C00000000EF
:100D7000E0000020E00400201913000810B501462F
:100D80000A69CB689A4204D88C68641EE41AA018D9
:100D900001E0D41A601E10BD2DE9FC5F06460F4627
:100DA00092469846DDE90C45002F01DA784200E0D2
:100DB000384683464FF0010903E09BFBFAFB09F13B
:100DC0000109D345F9DAC84500D9C14634B1002F2D
:100DD00003DB05F00400042800D1641E05F00200C6
:100DE00010B1B8F1000F11D005F0010070B96CB16D
:100DF00008E0641E2021304600F0BAF8F0680028B0
:100E000000DA02E00CB1A145F3D300BFF06800287E
:100E100036DB002F05DA7F422D21304600F0A8F89E
:100E200007E005F00400042803D12B21304600F030
:100E30009FF8F068002823DB05F00200022814D197
:100E400005F0010088B9B8F1000F0ED16CB108E0CF
:100E5000641E3021304600F08BF8F068002800DA7C
:100E600002E00CB1A145F3D300BFF068002807DB16
:100E70004346524639463046CDE9004500F002F877
:100E8000BDE8FC9F2DE9FC5F8046894615461E465D
:100E90000C9CCDF804900127BB4605E00198B0FBFF
:100EA000F5F001900BF1010B0198A842F6D25E45D6
:100EB00000D9B3460D9800F00100D0B9CCB10D981F
:100EC00000F00200022803D116B93020009001E0A2
:100ED0002020009009E0641E4046009900F048F888
:100EE000D8F80C00002800DA02E00CB1A345F2D3D8
:100EF00000BFD8F80C00002835DB09E0012E01D92D
:100F0000761E04E0B9FBF7FAAA4500D201E06F4370
:100F1000F4E700BF00BFB9FBF7FA0AFB17991348C3
:100F200010F80A10404600F023F8D8F80C0000280A
:100F300000DA03E0B7FBF5F7002FECD100BF0D9806
:100F400000F0010078B174B109E0641E2021404630
:100F500000F00EF8D8F80C00002800DA02E00CB11E
:100F6000A345F2D300BFBDE8FC9F00002A13000890
:100F700070B504460E46A568681C6168814206D3B8
:100F800020684655681CA060E068401CE060D4E919
:100F9000011088420DD1A26821682069FFF704FB87
:100FA000A168884203D04FF0FF30E06001E00020EC
:100FB000A06070BD2DE9F05F0446894617464FF0EA
:100FC000000AE56800BFD4F81080A84503D9A8EB53
:100FD0000500461E04E0A5EB0800401CA1680E1A9F
:100FE000A068401BB04201D9304601E0A068401B18
:100FF0000646BE4201D2304600E0384606466068EA
:1010000000EB050B324649465846FFF7D9F8B24483
:10101000B144BF1B3544A068A84200D10025E5605B
:10102000002FD0D15046BDE8F09F2DE9F04704468F
:1010300089461546E668A068871BAF420AD96068F2
:1010400000EB060A2A4649465046FFF7B9F87019E0
:10105000E06014E0B846606800EB060A4246494684
:101060005046FFF7ADF8A5EB0708D4F804A009EB4C
:10107000070142465046FFF7A3F8C4F80C80BDE8CC
:10108000F08702E008C8121F08C1002AFAD1704791
:101090007047002001E001C1121F002AFBD17047F8
:1010A00010B54FF00060084908600420FFF770FC9D
:1010B0004FF6FF704FF0E02148610846006940F0AC
:1010C0000100086110BD000008ED00E010B5044605
:1010D0004FF47A7104FB01F000F002F810BD00003B
:1010E00070B503460022114D2D68114EB5FBF6F583
:1010F00005FB03F44FF0E025A96913E04FF0E0256C
:10110000A86988420ED0884202D20D1A2A4405E00E
:101110004FF0E0256D692D1A0D442A440146A24284
:1011200000D300E0EAE700BF70BD0000000000202F
:1011300040420F001CB5FFF7B3FF4FF4E13000F061
:101140006DF801210220FFF72BF904200090012007
:101150008DF8040000208DF8060003208DF80500AE
:1011600000208DF8070069461748FFF762F829E06C
:1011700000BF00BF0020FFF7C7F914A10020FFF750
:1011800079FA174B17A21CA10020FFF773FA00BFD2
:1011900000BF4FF4FA70FFF799FF00BF00BF0120B6
:1011A000FFF7B2F918A10020FFF764FA0C4B0DA26B
:1011B00011A10020FFF75EFA00BF00BF4FF4FA70E4
:1011C000FFF784FFD4E70000000402401B5B313BC3
:1011D00033316D66696C655F6572726F720D0A00FE
:1011E000141300082E2E5C2E2E5C6170705C6D61F5
:1011F000696E2E63000000005B3A25732D3E257357
:101200005D2C2573200000001B5B313B33326D6683
:10121000696C655F696E666F0D0A000010B588B075
:10122000044601210846FFF7BBF807220921374889
:10123000FFF747F807220A213448FFF742F806A8CB
:10124000FFF762F84FF40070069002208DF81C0042
:1012500003208DF81D0000208DF81E0001208DF860
:101260001F0006A92948FEF7E4FF06A8FFF74CF87F
:101270004FF48060069002208DF81C0003208DF84A
:101280001D0000208DF81E0001208DF81F0006A90A
:101290001E48FEF7CEFF01211020FFF7A1F81C48E1
:1012A000FFF7F4FB02A8FFF723FD02940020ADF83E
:1012B0000C00ADF80E00ADF810000C20ADF81200D7
:1012C0000020ADF8140002A91148FFF7A7FC202167
:1012D0000F48FFF7B7FB012240F225510C48FFF7FA
:1012E00077FC01210A48FFF7C5FB25208DF8040093
:1012F00000208DF8050001208DF806008DF807000C
:1013000001A8FFF70FF808B010BD00000000024070
:10131000001001406D61696E000000000000005483
:10132000545220524547474553003031323334350B
:101330003637383941424344454600005C130008C3
:1013400000000020380000008210000894130008FC
:1013500038000020B808000092100008007A030A44
:101360000000000000000000010203040607080955
:10137000000000000102030401020304060708093B
:1013800030313233343536373839414243444546BB
:041390000000000059
:040000050800018965
:00000001FF
